:100000000C94CB020C94F3020C94F3020C94F302C4
:100010000C94BF0E0C94540E0C94F3020C94F30247
:100020000C94F3020C9407110C94F3020C94F30259
:100030000C94F3020C94F3020C94F3020C94F3026C
:100040000C94BF170C94F3020C94220E0C94FC0D2C
:100050000C94F3020C94F3020C94F3020C94F3024C
:100060000C94F3020C94F302AA1BAD1BB01BB31B40
:10007000BC1BDD1EE61EEF1EF11EF61EF71E08005D
:100080000000BE922449123EABAAAA2ABECDCCCC17
:100090004C3E00000080BEABAAAAAA3E00000000B1
:1000A000BF000000803F0000000000084178D3BB83
:1000B0004387D1133D190E3CC3BD4282AD2B3E6830
:1000C000EC8276BED98FE1A93E4C80EFFFBE01C421
:1000D000FF7F3F0000000000424D5320636F6D6DB5
:1000E000756E69636174696F6E206572726F7200FC
:1000F000424F4F544544210044495343484720440C
:1001000049533A20202020200043484720444953A7
:100110003A2020202020202020004144434F464602
:100120005345543A20202020202000414443474199
:10013000494E3A20202020202020200030783241D3
:10014000204241545F48495F4C4F3A200030783399
:10015000322043435F48495F4C4F3A2020003078BB
:1001600030422043435F4346473A2020202000305E
:100170007830412055565F545249503A2020200093
:1001800030783039204F565F545249503A20202061
:1001900000307830382050524F544543543320209B
:1001A0002000307830372050524F54454354323A73
:1001B000202000307830362050524F54454354317F
:1001C0003A20200030783035205359535F43545241
:1001D0004C323A200030783034205359535F435426
:1001E000524C313A2000307830312043454C4C425B
:1001F000414C313A20200030783030205359535F41
:10020000535441543A202000434847204F43442050
:100210006572726F72733A20004348472054454D0F
:1002200050206572726F72733A20004449534348FC
:10023000472054454D50206572726F72733A20000A
:100240004F4344206572726F72733A2000534344E7
:10025000206572726F72733A20004F56502065729B
:10026000726F72733A2000555650206572726F7229
:10027000733A2000414C455254206572726F72737C
:100280003A2000585245414459206572726F72738A
:100290003A20006D617843686172676543757272D8
:1002A000656E743A20006D617844697363686172A9
:1002B000676543757272656E743A20006D61785699
:1002C0006F6C746167653A2000207C2044656C7413
:1002D000613A2000207C204D61783A2000207C206B
:1002E0004176673A200043656C6C20563A204D6990
:1002F0006E3A2000002C20002900202800293A0016
:10030000202F200043656C6C20766F6C74616765EC
:100310007320280042616C616E63696E672073749C
:10032000617475733A2000200054656D70657261C8
:10033000747572653A2000534F433A20002900201B
:100340002800426174746572792063757272656EFB
:10035000743A200029002028004261747465727983
:1003600020766F6C746167653A2000757074696DF2
:10037000653A200000417474656D7074696E672081
:10038000746F20636C656172204F43442065727204
:100390006F7200417474656D7074696E6720746F5C
:1003A00020636C65617220534344206572726F72E2
:1003B00000417474656D7074696E6720746F20639A
:1003C0006C656172204F5650206572726F720041E9
:1003D0007474656D7074696E6720746F20636C65EA
:1003E000617220555650206572726F7200417474AC
:1003F000656D7074696E6720746F20636C656172DF
:1004000020414C455254206572726F7200417474E1
:10041000656D7074696E6720746F20636C656172BE
:1004200020585245414459206572726F7200436CE6
:10043000656172696E6720526567697374657220C1
:1004400043454C4C42414C002072656769737465AA
:100450007220746F3A200053657474696E6720438C
:10046000454C4C42414C006271373639783020455A
:1004700052524F523A204F43440062713736397816
:1004800030204552524F523A205343440062713754
:1004900036397830204552524F523A204F5650004C
:1004A00062713736397830204552524F523A2055D2
:1004B00056500062713736397830204552524F52CB
:1004C0003A20414C45525400627137363978302019
:1004D0004552524F523A20585245414459004469BE
:1004E0007361626C696E67204449534348472046F4
:1004F000455400456E61626C696E67204449534300
:100500004847204645540044697361626C696E67D0
:10051000204348472046455400456E61626C696E31
:100520006720434847204645540056002C20766FEC
:100530006C746167653A20004E756D43656C6C7331
:100540003A200000000000240027002A00000000DC
:1005500000250028002B0004040404040404040201
:100560000202020202030303030303010204081050
:10057000204080010204081020010204081020001D
:100580000000080002010000030407000000000052
:10059000000000003F2111241FBECFEFD8E0DEBFD6
:1005A000CDBF12E0A0E0B1E0E6E3FBE402C00590BD
:1005B0000D92AE37B107D9F725E0AEE7B2E001C042
:1005C0001D92A438B207E1F712E0CBECD2E004C0F0
:1005D0002197FE010E946E22CA3CD107C9F70E94F2
:1005E00009180C9499250C940000AB0160E070E0B0
:1005F0002AE00C945612FF920F931F93CF93DF9330
:10060000182F60E088E00E94F01680915A040E9442
:10061000F813612F8BE495E00E94B61110917A05D2
:100620000E94CC111092790510927A05112339F0AD
:1006300061E088E00E94F01680E090E052C0809176
:100640005C048823B1F164E080915A040E94141480
:100650008BE495E00E94A20DF82E60915A04660F7B
:10066000616080E00E941E116F2D0E941E11182FE4
:100670008BE495E00E94A20D212F30E02817390766
:1006800011F78BE495E00E94A20D082F682F80E0FF
:100690000E941E11182F8BE495E00E94A20D212FBD
:1006A00030E02817390779F6DF2D20E0C22FC02B64
:1006B00013C062E080915A040E9414148BE495E008
:1006C0000E94A20D182F8BE495E00E94A20DD12F5D
:1006D00020E0C22FC82BD92B61E088E00E94F016E1
:1006E000CE01DF91CF911F910F91FF9008952F922E
:1006F0003F924F925F926F927F928F929F92AF92B2
:10070000BF92CF92DF92EF92FF920F931F93CF93FE
:10071000DF93CDB7DEB72C970FB6F894DEBF0FBED0
:10072000CDBF80919404811104C080915D04882321
:1007300011F180E00E948E14182F87FF06C080E020
:100740000E948E14082F87FD81C5812F8F7309F4B5
:100750008DC780915D0485FF8BC680915D0484FF09
:10076000BAC613FDEBC612FD0FC711FD33C710FD4E
:1007700057C710935D04C0905D0460E088E00E945C
:10078000F01680915A040E94F8136CE08BE495E017
:100790000E94B6110E94CC111092790510927A0530
:1007A0001092E2041092E30446EAA42E44E0B42E30
:1007B000E12CF12CD12C58EE452E53E0552E612C16
:1007C000712C8091A40490E0E816F9060CF0A8C002
:1007D00080915C048823E1F164E080915A040E94D6
:1007E00014148BE495E00E94A20D4C018C010F7350
:1007F0001127102F002760915A04660F616080E076
:100800000E941E11682D0E941E11982E8BE495E007
:100810000E94A20D292D30E02817390729F061E048
:1008200088E00E94F01601C18BE495E00E94A20DC1
:10083000082B682F80E00E941E11982E8BE495E013
:100840000E94A20D292D30E028173907A9F0E7CF23
:1008500062E080915A040E9414148BE495E00E9497
:10086000A20D8C018BE495E00E94A20D0F7311275D
:10087000102F0027082B192BD5015F961C930E9380
:100880005E97A0912405B091250598010E947422DD
:10089000A30192010E942D22E0912A05F0912B05DF
:1008A0008091260590912705309749F0B701660F92
:1008B000771FE60FF71F60817181860F971F280F42
:1008C000391FF501219331935F01243FF1E03F0788
:1008D00018F18E2DED2DF0E0EB56FB4FE082E0910C
:1008E000E204F0E0EE0FFF1FEA55FB4F408151811B
:1008F0004217530710F4E092E204E091E304F0E0C1
:10090000EE0FFF1FEA55FB4F408151812417350739
:1009100010F48093E304D3942FEFE21AF20A51CF3C
:1009200061E088E00E94F016D092A5048AE20E945D
:10093000FB027C019093E9048093E804A0902405D5
:10094000B09025050091A50420912605309127053A
:100950008091280590912905820F931F10E0809FB8
:10096000B001819F700D909F700D1124072E000C17
:10097000880B990B0E94C5232B013C01C501A0E007
:10098000B0E09C01AD0162E0220F331F441F551FF0
:100990006A95D1F7D7010E948A220E94C32320E0E2
:1009A00030E04AE754E40E941B239B01AC01C301E1
:1009B000B2010E94AA220E9494236093E4047093DF
:1009C000E5048093E6049093E7042091F9043091C4
:1009D000FA04029FA001039F500D129F500D112495
:1009E0008A0120E030E06017710782079307D8F092
:1009F00080913D05803F89F44091FB045091FC04B7
:100A00006091FD047091FE044093FF045093000533
:100A1000609301057093020502C08F3F31F08F5F34
:100A200080933D0502C010923D058CE20E94FB02BE
:100A3000BC01990F880B990B0E94C52321E835E969
:100A400043EC5EE30E94CA240E948D23072E000C13
:100A5000880B990B0E94C5234B015C0120E030E418
:100A60004CE156E40E94CA242B013C01A5019401EB
:100A700060E070E48EE495E40E94A9229B01AC0141
:100A8000C301B2010E941B230E9494230E94C3232E
:100A900020E030E44CE156E40E941B230E948224B3
:100AA0004B015C01609190047091910480E090E0B2
:100AB0000E94C3239B01AC0160E070E080E89FE3EB
:100AC0000E941B23A50194010E94CA242FE03FEC41
:100AD0004BE55BE30E94AA229B01AC0160E070E061
:100AE00080E89FE30E941B2323E333E948E853E4B3
:100AF0000E94A92220E030E040E251E40E94CA2492
:100B00000E948D237093F1046093F00480915B0444
:100B10008250823008F071C08EE20E94FB02BC015C
:100B2000990F880B990B0E94C52321E835E943EC06
:100B30005EE30E94CA240E948D23072E000C880BBE
:100B4000990B0E94C5234B015C0120E030E44CE18D
:100B500056E40E94CA242B013C01A501940160E0E7
:100B600070E48EE495E40E94A9229B01AC01C301CC
:100B7000B2010E941B230E9494230E94C32320E001
:100B800030E44CE156E40E941B230E9482244B0176
:100B90005C01609190047091910480E090E00E946B
:100BA000C3239B01AC0160E070E080E89FE30E94FA
:100BB0001B23A50194010E94CA242FE03FEC4BE5C2
:100BC0005BE30E94AA229B01AC0160E070E080E838
:100BD0009FE30E941B2323E333E948E853E40E9488
:100BE000A92220E030E040E251E40E94CA240E94A1
:100BF0008D237093F3046093F20480915B0483303F
:100C000009F071C080E30E94FB02BC01990F880BC0
:100C1000990B0E94C52321E835E943EC5EE30E946D
:100C2000CA240E948D23072E000C880B990B0E946A
:100C3000C5234B015C0120E030E44CE156E40E9406
:100C4000CA242B013C01A501940160E070E48EE40C
:100C500095E40E94A9229B01AC01C301B2010E944C
:100C60001B230E9494230E94C32320E030E44CE124
:100C700056E40E941B230E9482244B015C01609178
:100C800090047091910480E090E00E94C3239B0146
:100C9000AC0160E070E080E89FE30E941B23A501A7
:100CA00094010E94CA242FE03FEC4BE55BE30E94D5
:100CB000AA229B01AC0160E070E080E89FE30E9403
:100CC0001B2323E333E948E853E40E94A92220E0F0
:100CD00030E040E251E40E94CA240E948D237093C8
:100CE000F5046093F4040E94B3178B019C0180917A
:100CF000A40490E0049665E070E00E9419226A87DF
:100D000080912C05882309F424C180915D04811110
:100D100020C180913705882321F0809138058230E9
:100D200011F18091330590913405A0913505B09172
:100D3000360548015901881A990AAA0ABB0AC50151
:100D4000B40128EE33E040E050E00E942D22809173
:100D5000310590913205A0E0B0E0281739074A0725
:100D60005B070CF4F6C0E091E204F0E0EE0FFF1F29
:100D7000EA55FB4F80819181209121053091220518
:100D80002817390708F0E5C0E091E304F0E0EE0F22
:100D9000FF1FEA55FB4F20813181821B930B20916D
:100DA000230530E02817390708F0D3C010922D052D
:100DB00010922E0510922F0510923005412C512CC7
:100DC00032014394A12CB12C9E012F5F3F4F79013A
:100DD00088248394912C4F828FEF840DDA848D15B3
:100DE00008F0F3C08091E30490E020912305622F86
:100DF00070E09501220F331FA9014A555B4F1A017C
:100E000040E050E0880F991FDC01AA55BB4FB9871D
:100E1000A887F101819191911F01843FF1E09F0723
:100E200080F1A885B9852D913C91FC01E21BF30B63
:100E30006E177F0730F5F701E40FF11D8F010E19D2
:100E40001F09EE15FF05B1F0DF01DE90BC87AB870F
:100E5000DE8295012D0D311D220F331F2A553B4F88
:100E6000D9012D913C912817390730F4D082EB85B8
:100E7000FC85E4CF00E010E0F701E00FF11F5083A4
:100E80004F5F5F5F553029F6F70100E010E08E2FCD
:100E90008E198417C8F4C401019002C0880F991FED
:100EA0000A94E2F7802B912B9C01220F331F202301
:100EB0003123232B61F79801220F331F2823392375
:100EC000232B29F78C01E3CF8091BE018823B9F051
:100ED00067E574E080EB93E00E942712B301A20162
:100EE00080EB93E00E94B51368E474E080EB93E03C
:100EF0000E942712C8010E942C110E94E713C8010A
:100F00000A2C02C0880F991F0A94E2F7A0E0B0E013
:100F100040912D0550912E0560912F05709130055F
:100F2000842B952BA62BB72B80932D0590932E0504
:100F3000A0932F05B0933005602F8F810E94571426
:100F4000E5E0AE0EB11CFFEF4F1A5F0A6F0A7F0A91
:100F500042CF80912D0590912E05A0912F05B09143
:100F60003005892B8A2B8B2B81F1812C912C5401FC
:100F70008394182D8FEF880DDA848D15F0F480910D
:100F8000BE01882381F06EE274E080EB93E00E9462
:100F90002712B501A40180EB93E00E94B51380EB0A
:100FA00093E00E949F1260E0812F0E9457142FEF60
:100FB000821A920AA20AB20ADCCF10922D05109270
:100FC0002E0510922F0510923005CC2009F409C18E
:100FD00080915D0485FF30C00E94B31700915E04CC
:100FE00010915F042091600430916104DC01CB0119
:100FF000801B910BA20BB30B893B9B40A105B10554
:10100000D8F08091BE01882331F06DE074E080EB70
:1010100093E00E94A31260E280E00E94571481E0F6
:1010200090E00E94E01481E090E00E9432158091EF
:101030005D048F7D80935D0480915D0484FF1BC0FF
:101040008091BE01882331F06DEE73E080EB93E078
:101050000E94A31260E180E00E94571482E090E0B9
:101060000E94E01482E090E00E94321580915D04BD
:101070008F7E80935D0480915D0483FF27C0E091A3
:10108000E304F0E0EE0FFF1FEA55FB4F20813181B2
:1010900080911F059091200582179307B8F48091E5
:1010A000BE01882331F06FEC73E080EB93E00E9487
:1010B000A31268E080E00E94571484E090E00E9450
:1010C000321580915D04877F80935D0480915D047B
:1010D00082FF27C0E091E204F0E0EE0FFF1FEA5527
:1010E000FB4F2081318180911D0590911E052817AD
:1010F0003907B8F48091BE01882331F061EB73E0C9
:1011000080EB93E00E94A31264E080E00E945714F9
:1011100088E090E00E94E01480915D048B7F8093D2
:101120005D0480915D0481FF2CC00E94B317009183
:101130006E0410916F042091700430917104DC01F1
:10114000CB01801B910BA20BB30B81319742A10500
:10115000B105B8F08091BE01882331F063E973E0F6
:1011600080EB93E00E94A31262E080E00E9457149B
:1011700080E190E00E94321580915D048D7F809324
:101180005D0480915D0480FF2CC00E94B317009124
:101190007204109173042091740430917504DC0181
:1011A000CB01801B910BA20BB30B81319742A105A0
:1011B000B105B8F08091BE01882331F065E773E096
:1011C00080EB93E00E94A31261E080E00E9457143C
:1011D00080E290E00E94321580915D048E7F8093C2
:1011E0005D044091F60450E000EF14E0F80180E067
:1011F00090E02FEF3FE7BA01082E02C07595679582
:101200000A94E2F760FF06C060817181621773077C
:101210000CF49B01019632968330910561F7809121
:10122000150590911605E0908804F0908904281720
:1012300039070CF427C20E949613209119053091AA
:101240001A05281739070CF41DC232C282E30E9426
:10125000FB029093EF048093EE0428EF30E2DC0170
:101260000E94832220918C0430918D0440918E0441
:1012700050918F040E944F2269017A012093EA0461
:101280003093EB044093EC045093ED04CA01B90190
:1012900024E030E040E050E00E944F228091FF04C3
:1012A00090910005A0910105B0910205820F931F56
:1012B000A41FB51F8093FF0490930005A093010520
:1012C000B09302058090FB049090FC04A090FD0474
:1012D000B090FE0488169906AA06BB0644F48092D4
:1012E000FF0490920005A0920105B0920205809142
:1012F000FF0490910005A0910105B0910205B7FF90
:1013000008C01092FF04109200051092010510927F
:101310000205F7FE2EC0C701B60124E030E040E030
:1013200050E00E944F228091030590910405A09106
:101330000505B0910605821B930BA40BB50B80939A
:10134000030590930405A0930505B0930605881640
:101350009906AA06BB066CF480914D048F5F8093BA
:101360004D04109203051092040510920505109289
:101370000605409111055091120560911305709179
:101380001405809138054C155D056E057F054CF5FB
:1013900081110EC081E0809338050E94B3176093DD
:1013A000390570933A0580933B0590933C0523C023
:1013B000813009F50E94B317C0903905D0903A05E5
:1013C000E0903B05F0903C05DC01CB018C199D09B8
:1013D000AE09BF0981369A4EA105B10508F049C191
:1013E0000AC0823031F43AE0C316D104E104F104BA
:1013F00014F4109238058091EA049091EB04A091C6
:10140000EC04B091ED04AC01BD01B7FF07C0442767
:101410005527BA01481B590B6A0B7B0BC09011056D
:10142000D0901205E0901305F0901405C416D5066F
:10143000E606F706A0F4B7FD08C0809137058823BB
:1014400021F080913805823051F00E94B3176093EB
:1014500033057093340580933505909336050F73EB
:1014600011F41092940460E880E00E9457146DC952
:1014700015FF73C910928704109286048091880426
:10148000909189048160909389048093880480916D
:101490008A0490918B04816090938B0480938A04DA
:1014A00080914F048F5F80934F040E94B317609325
:1014B0005E0470935F048093600490936104809154
:1014C000BE01882309F449C968EC74E080EB93E01D
:1014D0000E94A31242C914FF44C9109287041092BB
:1014E0008604809188049091890482609093890495
:1014F0008093880480918A0490918B0482609093F9
:101500008B0480938A04809150048F5F80935004F1
:101510000E94B31760936204709363048093640421
:10152000909365048091BE01882309F41AC963EB86
:1015300074E080EB93E00E94A31213C91092870419
:1015400080918A0490918B04846090938B048093A3
:101550008A04809151048F5F809351040E94B317D5
:1015600060936604709367048093680490936904A1
:101570008091BE01882309F4F6C860EA74E080EB2C
:1015800093E00E94A312EFC8109286048091880411
:101590009091890488609093890480938804809155
:1015A00052048F5F809352040E94B31760936A04C1
:1015B00070936B0480936C0490936D048091BE01D2
:1015C000882309F4D2C86DE874E080EB93E00E94B0
:1015D000A312CBC81092870480918A0490918B0447
:1015E000806190938B0480938A04809153048F5F71
:1015F000809353040E94B31760936E0470936F043A
:1016000080937004909371048091BE01882309F443
:10161000AEC86AE774E080EB93E00E94A312A7C80B
:101620001092870480918A0490918B048062909339
:101630008B0480938A04809154048F5F80935404B8
:101640000E94B317609372047093730480937404C0
:10165000909375048091BE01882309F48AC867E6D7
:1016600074E080EB93E00E94A31283C810925D04A3
:1016700082C882E08093380580914E048F5F80930A
:101680004E04B9CEF0FC1AC080E091E00E940D1526
:10169000809157048F5F809357040E94B317609323
:1016A0007E0470937F04809380049093810406C02D
:1016B000F0FE04C080E091E00E94E0144091F60446
:1016C00050E080E090E02FEF3FE7BA01082E02C023
:1016D000759567950A94E2F760FF07C0D8016D9190
:1016E0007C91621773070CF49B0101960E5F1F4FEC
:1016F0008330910551F7809117059091180510914D
:101700008A04281739074CF00E94961320911B0574
:1017100030911C0528173907B4F417FD1AC080E86A
:1017200090E00E945F15809156048F5F809356046D
:101730000E94B31760937A0470937B0480937C04B7
:1017400090937D0406C017FF04C080E890E00E94DB
:1017500032154091EA045091EB046091EC047091D1
:10176000ED048091070590910805A0910905B091BD
:101770000A0584179507A607B7070CF04AC0109210
:101780004205109243051092440510924505809140
:101790008604882309F49BC0809188049091890471
:1017A00091FD95C080913E0590913F05A091400527
:1017B000B0914105892B8A2B8B2B51F40E94B317D2
:1017C00060933E0570933F058093400590934105DB
:1017D0000E94B31700913E0510913F0520914005EE
:1017E00030914105AB01BC01401B510B620B730BE7
:1017F00080910B0590910C05A0E0B0E0841795074F
:10180000A607B70708F450C08091460581114CC067
:101810005EC010923E0510923F0510924005109256
:10182000410510924605809188049091890491FFAA
:101830004EC08091420590914305A0914405B0911E
:101840004505892B8A2B8B2B51F40E94B31760938B
:1018500042057093430580934405909345050E948B
:10186000B317009142051091430520914405309132
:101870004505DC01CB01801B910BA20BB30B813121
:101880009742A105B10518F180E092E00E94E014B2
:10189000109242051092430510924405109245059E
:1018A00081E08093460513C080E092E00E940D1510
:1018B000809158048F5F809358040E94B3176093FF
:1018C00082047093830480938404909385048C2D08
:1018D0002C960FB6F894DEBF0FBECDBFDF91CF912F
:1018E0001F910F91FF90EF90DF90CF90BF90AF903E
:1018F0009F908F907F906F905F904F903F902F9030
:101900000895CF92DF92EF92FF920F931F93CF93A0
:10191000DF936C017A018B01C0E0D0E0CE15DF05CA
:1019200081F0D8016D918D01D601ED91FC9101906E
:10193000F081E02DC6010995892B11F02196EECF9B
:101940007E01C701DF91CF911F910F91FF90EF9022
:10195000DF90CF900895FC01538D448D252F30E00A
:10196000842F90E0821B930B541710F0CF960895AC
:1019700001970895FC01918D828D981761F0828DF9
:10198000DF01A80FB11D5D968C91928D9F5F9F73B3
:10199000928F90E008958FEF9FEF0895FC01918D55
:1019A000828D981731F0828DE80FF11D858D90E0C2
:1019B00008958FEF9FEF0895FC01918D228D892F5F
:1019C00090E0805C9F4F821B91098F739927089547
:1019D00080EB93E00E94DC0C21E0892B09F420E0ED
:1019E000822F0895FC01848DDF01A80FB11DA35A39
:1019F000BF4F2C91848D90E001968F739927848F2F
:101A0000A689B7892C93A089B1898C918370806451
:101A10008C93938D848D981306C00288F389E02DF2
:101A200080818F7D80830895EF92FF920F931F93A3
:101A3000CF93DF93EC0181E0888F9B8D8C8D981381
:101A400005C0E889F989808185FD26C0F62E0B8DB9
:101A500010E00F5F1F4F0F731127E02E8C8DE812DF
:101A60000CC00FB607FCFACFE889F989808185FFA1
:101A7000F5CFCE010E94F20CF1CF8B8DFE01E80F65
:101A8000F11DE35AFF4FF0829FB7F8940B8FEA895C
:101A9000FB89808180620AC09FB7F894EE89FF8934
:101AA0006083E889F98980818370806480839FBF27
:101AB00081E090E0DF91CF911F910F91FF90EF9027
:101AC0000895CF93DF93EC01888D8823C9F0EA89CC
:101AD000FB89808185FD05C0A889B9898C9186FD27
:101AE0000FC00FB607FCF5CF808185FFF2CFA88924
:101AF000B9898C9185FFEDCFCE010E94F20CE7CF22
:101B0000DF91CF91089580E090E0892B29F00E9429
:101B1000E80C81110C9400000895089581E08093F1
:101B2000870280938A0208950895FC0124A535A5B3
:101B3000231728F4E20FF11D848590E008958FEFBC
:101B40009FEF0895FC0194A585A5981748F4DF013F
:101B5000A90FB11D1C962C9130E09F5F94A702C085
:101B60002FEF3FEFC9010895FC0125A530E084A5C2
:101B7000A901481B5109CA010895CF92DF92EF9243
:101B8000FF920F931F93CF93DF936C01EB017B01C7
:101B9000E40EF51E00E010E0CE15DF0561F069915E
:101BA000D601ED91FC910190F081E02DC6010995DF
:101BB000080F191FF1CFC801DF91CF911F910F912D
:101BC000FF90EF90DF90CF90089580E090E008952F
:101BD0000E9471250E94B3176093470570934805D2
:101BE0008093490590934A0581E080939404809303
:101BF0008B0280938A0208951F920F920FB60F9264
:101C000011242F933F934F935F936F937F938F9301
:101C10009F93AF93BF93EF93FF9380EB93E00E946A
:101C2000F20CFF91EF91BF91AF919F918F917F91B6
:101C30006F915F914F913F912F910F900FBE0F9039
:101C40001F9018951F920F920FB60F9211242F9389
:101C50008F939F93EF93FF93E091C003F091C103A3
:101C60008081E091C603F091C70382FD12C090818C
:101C70008091C9038F5F8F732091CA03821751F03F
:101C8000E091C903F0E0E055FC4F958F8093C903C4
:101C900001C08081FF91EF919F918F912F910F90C3
:101CA0000FBE0F901F9018951F920F920FB60F92B4
:101CB00011242F933F934F935F936F937F938F9351
:101CC0009F93AF93BF93CF93EF93FF9329B1C091AD
:101CD0008602822F8C27909183029223309180027A
:101CE000C323C92BC82320938602C4FF05C0E091FB
:101CF000B001F091B1010995C5FF05C0E091B201B5
:101D0000F091B3010995C6FF05C0E091B401F091CF
:101D1000B5010995C7FF05C0E091B601F091B70183
:101D20000995C0FF05C0E0910001F09101010995FE
:101D3000C1FF05C0E091B801F091B9010995C2FF5A
:101D400005C0E091BA01F091BB010995C3FF05C040
:101D5000E091BC01F091BD010995FF91EF91CF9108
:101D6000BF91AF919F918F917F916F915F914F91B3
:101D70003F912F910F900FBE0F901F9018951F92BB
:101D80000F920FB60F9211242F933F934F935F93AF
:101D90006F937F938F939F93AF93BF93CF93EF9363
:101DA000FF9326B1C0918502822F8C2790918202E9
:101DB000922330917F02C323C92BC823209385022D
:101DC000C0FF05C0E091A601F091A7010995C1FFF0
:101DD00005C0E091A801F091A9010995C2FF05C0D5
:101DE000E091AA01F091AB010995C3FF05C0E09114
:101DF0000201F09103010995C4FF05C0E091AC0117
:101E0000F091AD010995C5FF05C0E091AE01F091DB
:101E1000AF010995FF91EF91CF91BF91AF919F9144
:101E20008F917F916F915F914F913F912F910F9083
:101E30000FBE0F901F901895CF92DF92EF92FF92F6
:101E40000F931F93CF93E091D701F091D8010091A8
:101E5000D5011091D6012091D1013091D20140914C
:101E6000D3015091D401A0E1BEE00E948A22609388
:101E7000FB047093FC048093FD049093FE04109384
:101E8000F8040093F704F093FA04E093F904209126
:101E9000DF013091E00140E050E020938C0430936A
:101EA0008D0440938E0450938F048091E1019091B2
:101EB000E2019093910480939004E091E901F09104
:101EC000EA01A091E701B091E8010091E5011091CC
:101ED000E601E090E301F090E4018AE08E9DB0011C
:101EE0008F9D700D11247093180560931705809FC6
:101EF000B001819F700D112470931C0560931B0528
:101F00008A9FB0018B9F700D11247093160560930A
:101F100015058E9FB0018F9F700D112470931A05C7
:101F2000609319056091EB017091EC018091ED01D6
:101F30009091EE01C0E00E94092220E432E44FE0DB
:101F400050E00E942D22E7E3F2E087E0929129170A
:101F500020F08770C87FC82B02C08150B9F7C861D4
:101F60006C2F86E00E94571460918C0470918D0450
:101F700080918E0490918F042091F5013091F601AB
:101F8000C090F101D090F201E090F301F090F401E3
:101F9000C0920705D0920805E0920905F0920A0563
:101FA00030930C0520930B052091F7013091F80137
:101FB0004091F9015091FA01C0E00E94092220E409
:101FC00032E44FE050E00E942D22E7E4F2E08FE09F
:101FD0009291291720F08F70C07FC82B02C08150CA
:101FE000B9F7C0676C2F87E00E9457140091FF017A
:101FF00010910002E090FD01F090FE0188E00E9447
:102000008E14C82FF0922005E0921F0580912605BE
:10201000909127059701281B390BA8EEB3E00E9489
:102020007422209124053091250540E050E00E9463
:102030002D22DA01C90134E0B695A79597958795C9
:102040003A95D1F79C013327B9016F5F7F4F8AE042
:102050000E945714CF730031110540F40830110568
:1020600038F40430110558F081E003C083E001C06A
:1020700082E08295880F880F807CCF73C82B6C2FED
:1020800088E00E945714E0900302F090040200914F
:1020900001021091020288E00E948E14C82F109352
:1020A0001E0500931D058091260590912705980136
:1020B000281B390BA8EEB3E00E947422209124055E
:1020C0003091250540E050E00E942D22CA01B9015F
:1020D00024E096958795779567952A95D1F789E0BD
:1020E0000E945714CF7C88E0E816F10450F484E095
:1020F000E816F10440F482E0E816F10448F081E0CB
:1021000003C083E001C082E08295807FCF7CC82B32
:102110006C2F88E00E9457148091090220910702D9
:102120003091080240910502509106025093320509
:102130004093310530932205209321058093230598
:1021400080910B0290910C02A0E0B0E08093110509
:1021500090931205A0931305B093140580910D027E
:1021600090910E02892B21F081E080932C0502C012
:1021700010922C0581E08093370580910F02909199
:102180001002909329058093280581E192E09093B5
:102190002B0580932A054EE050E063EC71E084E269
:1021A00091E00E948A258091D1019091D201909373
:1021B00037018093360190933501809334018091EB
:1021C000D5019091D6019093390180933801809187
:1021D000DD019091DE01909345018093440180914F
:1021E000D9019091DA0190933B0180933A0180915B
:1021F000DB019091DC0190933D0180933C01CF91F4
:102200001F910F91FF90EF90DF90CF9008951F9254
:102210000F920FB60F9211248F939F938091880293
:1022200090918902019690938902809388029F91F0
:102230008F910F900FBE0F901F901895862798E0F2
:1022400037E0282F220F87FF03C0822F832701C08A
:10225000822F9150B1F70895EF92FF920F931F9341
:10226000CF93DF937C011092A70308E010E0C0E851
:10227000D0E0C7018C239D238C179D0719F06DE6D4
:1022800072E002C06BE672E087EA93E00E947F256D
:10229000D595C7950150110961F787EA93E0DF9161
:1022A000CF911F910F91FF90EF90089571E0579A91
:1022B0005698000000000000C5D05798C3D0A894DD
:1022C0000000000000004F9BA9D0B2F088944E9906
:1022D0000894771F60F7579A803011F0569801C024
:1022E000569A000000000000ADD05798A894000056
:1022F00000004F9B93D0A6D000000000579A872F74
:102300009927089580E208950894881F01C0880FD6
:10231000B9F0579A00000000000018F40000569829
:1023200002C0569A00C08ED05798A89400000000B2
:1023300000004F9B73D012F4882712C083D0E7CFE0
:10234000579A0000000056987DD099278827579803
:10235000A89400004F9B62D07AF34E9B81E072D02C
:1023600000000000579A089581E00895CF93DF930D
:10237000EC01862F0E948411811106C08FA5811166
:1023800006C083E08FA703C081E090E002C080E038
:1023900090E0DF91CF910895579A569A53D057986D
:1023A00051D04F9B3BD056984DD008958F93F1E07C
:1023B000E4EF8F918F934F9B31D0569A43D0A4DF97
:1023C000882321F4E9DF319709F0F3CF99270F90A3
:1023D00008950895579A36D0569834D0579832D0E9
:1023E0004F9B1CD0569A2ED08FDF089581E0089520
:1023F0004F9B14D0569A26D087DF089581E0089528
:10240000569857985E985F98882799274E9B08950D
:102410004F9B089581E0089581E00895B0E0A8EC15
:10242000002409D032F40A94E1F71197C9F72894EF
:1024300008C0A89406C0A8944F9901C02894000031
:102440000895089598E09A95F1F708950895EF9208
:10245000FF920F931F93CF93DF938C017B01C0E01A
:10246000D0E0F701EC0FFD1F6491662339F0C8013D
:102470000E94140D892B11F02196F3CFCE01DF912C
:10248000CF911F910F91FF90EF9008956115710505
:1024900051F0FB0101900020E9F73197AF01461B95
:1024A000570B0C94810C80E090E008958F929F92DE
:1024B000AF92BF92EF92FF920F931F93CF93DF9350
:1024C000CDB7DEB7A1970FB6F894DEBF0FBECDBF74
:1024D0007C01FA01CB0119A2223008F42AE08E0116
:1024E0000F5D1F4F822E912CA12CB12CBF01A50195
:1024F00094010E942D22F901CA01015011096A308C
:1025000014F4605D01C0695CD8016C93232B242B0B
:10251000252B61F7B801C7010E944612A1960FB69C
:10252000F894DEBF0FBECDBFDF91CF911F910F9109
:10253000FF90EF90BF90AF909F908F9008956FE6BF
:1025400072E00C9446120F931F93CF93DF93EC012C
:102550000E9427128C01CE010E949F12800F911FB2
:10256000DF91CF911F910F910895AF92BF92CF92BB
:10257000DF92EF92FF920F931F93CF93DF9380919F
:10258000BE01882349F168E375E080EB93E00E9487
:1025900027124091A50450E060E070E02AE080EB53
:1025A00093E00E9456126CE275E080EB93E00E948B
:1025B00027124091E4045091E5046091E604709183
:1025C000E7042AE080EB93E00E9456126AE275E08D
:1025D00080EB93E00E94A3122091A50430E040E03C
:1025E00050E06091E4047091E5048091E6049091DC
:1025F000E7040E942D22C9011092FF0410920005E9
:102600001092010510920205A0909204B0909304DC
:10261000F501C0E0D0E0019111918017910708F415
:1026200075C0209789F48091FB049091FC04A091DF
:10263000FD04B091FE048093FF0490930005A093E5
:102640000105B093020567C0B90180E090E00E94E7
:10265000C3236B017C01B80180E090E00E94C3239A
:102660009B01AC01C701B6010E94A9226B017C014C
:10267000FE01E150F048EE0FFF1FEA0DFB1D6081E7
:102680007181601B710B80E090E00E94C3239B016D
:10269000AC01C701B6010E941B236B017C01BE0186
:1026A000DD0F880B990B0E94C5239B01AC0160E0F4
:1026B00070E080EA91E40E94A9229B01AC01C7016D
:1026C000B6010E94AA226B017C016091FB0470910B
:1026D000FC048091FD049091FE040E94C52320E03B
:1026E00030E040EA51E40E941B239B01AC01C7018A
:1026F000B6010E94CA240E948D236093FF04709348
:102700000005809301059093020505C02196C5310F
:10271000D10509F080CFDF91CF911F910F91FF90EC
:10272000EF90DF90CF90BF90AF9008954091F60466
:1027300050E0E0EFF4E020E030E080E090E8BA0123
:10274000022E02C0759567950A94E2F760FF06C0F5
:1027500060817181861797070CF4CB012F5F3F4F83
:1027600032962330310559F70895CF92DF92EF92D8
:10277000FF920F931F93CF93DF9377FF1DC06A01E2
:102780007B01EC016DE20E94140D8C01442755275A
:10279000BA014C195D096E097F092AE0CE010E9439
:1027A0005612800F911FDF91CF911F910F91FF90D3
:1027B000EF90DF90CF9008952AE0DF91CF911F91A5
:1027C0000F91FF90EF90DF90CF900C945612CF9323
:1027D000DF93BC0180EB93E00E944612EC0180EB9A
:1027E00093E00E949F128C0F9D1FDF91CF9108955F
:1027F000CF93C0917905880FCC2351F00E94EA1144
:10280000811102C082E001C080E080937A0507C098
:102810000E94F811811101C0C2E0C0937A0581E0E5
:1028200080937905CF910895CF92DF92EF92FF9236
:102830000F931F93CF93C62F613208F0C0E2880F29
:1028400081600E94EA1190917A05911105C0811171
:1028500003C082E080937A0587E5C82E85E0D82EF4
:1028600000E010E0EC2EF12C81E0E81AF1080C17E2
:1028700068F481E0E016F10609F080E00E9456114C
:10288000F60181936F010F5F1F4FF1CF1092770513
:10289000C0937805109279050E94CC118C2FCF91AE
:1028A0001F910F91FF90EF90DF90CF900895CF93FD
:1028B000DF93D82FC62F60E088E00E94F016809149
:1028C0005A040E94F8136D2F8BE495E00E94B61114
:1028D0006C2F8BE495E00E94B61180915C048823F4
:1028E00089F060915A04660F80E00E941E116D2FDE
:1028F0000E941E116C2F0E941E11682F8BE495E020
:102900000E94B6110E94CC111092790510927A059E
:1029100061E088E0DF91CF910C94F016CF93DF93C4
:10292000C82F60E088E00E94F01680915A040E944F
:10293000F8136C2F8BE495E00E94B611C0917A05D4
:102940000E94CC111092790510927A05CC2331F0B7
:1029500061E088E00E94F01680E02FC080915C0466
:102960008823E1F062E080915A040E9414148BE401
:1029700095E00E94A20DC82F8BE495E00E94A20D65
:10298000D82F60915A04660F616080E00E941E118A
:102990006C2F0E941E118D13E5CF0AC061E080915B
:1029A0005A040E9414148BE495E00E94A20DC82FD3
:1029B00061E088E00E94F0168C2FDF91CF9108959E
:1029C000CF9380959095209188043091890482233B
:1029D00093239093890480938804C0918604CC2328
:1029E00011F0C1E017C0892BA9F485E00E948E1474
:1029F000682F616085E00E94571481E0809386040F
:102A0000C091BE01CC2369F369E175E080EB93E0EE
:102A10000E94A3128C2FCF910895209188043091A9
:102A20008904822B932B90938904809388042091AE
:102A300086042223B1F0892BA1F085E00E948E1438
:102A4000682F6E7F85E00E94571410928604809153
:102A5000BE01882331F067E075E080EB93E00C94D1
:102A6000A3120895CF938095909520918A04309178
:102A70008B048223932390938B0480938A04C091C8
:102A80008704CC2311F0C1E017C0892BA9F485E09D
:102A90000E948E14682F626085E00E94571481E0C6
:102AA00080938704C091BE01CC2369F363EF74E087
:102AB00080EB93E00E94A3128C2FCF910895209178
:102AC0008A0430918B04822B932B90938B048093F8
:102AD0008A04209187042223B1F0892BA1F085E09C
:102AE0000E948E14682F6D7F85E00E94571410920B
:102AF00087048091BE01882331F06EED74E080EB95
:102B000093E00C94A31208953FB7F8948091800548
:102B100090918105A0918205B091830526B5A89B6F
:102B200005C02F3F19F00196A11DB11D3FBFBA2F5F
:102B3000A92F982F8827820F911DA11DB11DBC01BF
:102B4000CD0143E0660F771F881F991F4A95D1F783
:102B500008950F931F93CF93DF93EC010E94F5022A
:102B60008C01CE010E949F12800F911FDF91CF91A7
:102B70001F910F9108950F931F93CF93DF930FEB46
:102B800011E0C0E0D0E0CE010E94F321F801819372
:102B90008F012196C037D105B1F78FEB91E0DF911E
:102BA000CF911F910F910895FF920F931F93CF9391
:102BB000DF930FEB11E0C0E0D0E0F801F1908F015E
:102BC000CE010E94F321F81621F06F2DCE010E9454
:102BD000FB212196C037D10581F78FEB91E0DF9182
:102BE000CF911F910F91FF90089580916D008E7F7E
:102BF00080936D0080916D00811105C08091680007
:102C00008B7F809368000895CF93DF93482F50E027
:102C100060E070E02AE080EB93E00E945612EC0145
:102C200080EB93E00E949F128C0F9D1FDF91CF914C
:102C300008958F929F92AF92BF92CF92DF92EF92C0
:102C4000FF920F931F93CF93DF936B017C01142F9F
:102C50009B01AC010E943725882319F062E772E0DE
:102C600027C046015701E894B7F82FEF3FEF4FE731
:102C70005FE7C501B4010E94372581110DC02FEF18
:102C80003FEF4FE75FE7C501B4010E941623181616
:102C90001CF466E772E00CC02FEF3FEF4FE75FE4F4
:102CA000C701B6010E947524181694F46AE772E011
:102CB00080EB93E0DF91CF911F910F91FF90EF9008
:102CC000DF90CF90BF90AF909F908F900C94461262
:102CD0002FEF3FEF4FE75FECC701B6010E941623CD
:102CE00087FDE4CF20E030E0A901C701B6010E94D2
:102CF000162387FF0BC06DE280EB93E00E94140D5A
:102D0000EC01F7FAF094F7F8F09402C0C0E0D0E0DC
:102D100000E060E070E080E09FE3101741F020E009
:102D200030E040E251E40E941B230F5FF6CFA70181
:102D300096010E94AA226B017C010E9494234B0100
:102D40005C012AE0AB01BC0180EB93E00E945612CB
:102D5000C80FD91F1123B1F1C501B4010E94C323CB
:102D60009B01AC01C701B6010E94A9226B017C0145
:102D70006EE280EB93E00E94140DC80FD91F20E093
:102D800030E040E251E4C701B6010E94CA244B0181
:102D90005C010E9494236B017C0180EB93E00E9414
:102DA000F502C80FD91FB60180E090E00E94C3234E
:102DB0009B01AC01C501B4010E94A9226B017C01F9
:102DC0001150E9F6CE01DF91CF911F910F91FF9045
:102DD000EF90DF90CF90BF90AF909F908F9008952D
:102DE00090E0FC01E158FA4F2491FC01E559FA4FBB
:102DF0003491FC01E95AFA4FE491EE2309F43CC006
:102E0000222339F1233091F038F42130A9F0223017
:102E100001F584B58F7D12C0273091F02830A1F0E4
:102E20002430B9F4809180008F7D03C080918000B0
:102E30008F77809380000DC084B58F7784BD09C0E3
:102E40008091B0008F7703C08091B0008F7D809318
:102E5000B000F0E0EE0FFF1FE35BFA4FA591B491D5
:102E60009FB7F894611104C08C913095382302C04B
:102E7000EC913E2B3C939FBF0895CF93DF9390E05E
:102E8000FC01E559FA4F2491FC01E95AFA4F84916B
:102E9000882361F190E0880F991FFC01ED5BFA4FE8
:102EA000C591D491FC01E35BFA4FA591B4916111F6
:102EB00009C09FB7F8948881209582238883EC917C
:102EC0002E230BC0623061F49FB7F8948881322FB3
:102ED000309583238883EC912E2B2C939FBF06C0C3
:102EE0008FB7F894E8812E2B28838FBFDF91CF9185
:102EF00008958F929F92AF92BF92CF92DF92EF92FE
:102F0000FF926B017C010E9484154B015C01C1148E
:102F1000D104E104F104F1F00E948415DC01CB013D
:102F200088199909AA09BB09883E9340A105B105F2
:102F300070F321E0C21AD108E108F10888EE880E8A
:102F400083E0981EA11CB11CC114D104E104F1045A
:102F500019F7DDCFFF90EF90DF90CF90BF90AF904B
:102F60009F908F9008952FB7F89460917B05709192
:102F70007C0580917D0590917E052FBF08951F925D
:102F80000F920FB60F9211242F933F938F939F931D
:102F9000AF93BF9380917B0590917C05A0917D05B7
:102FA000B0917E0530917F0526E0230F2D3720F468
:102FB0000296A11DB11D05C029E8230F0396A11D8E
:102FC000B11D20937F0580937B0590937C05A09392
:102FD0007D05B0937E058091800590918105A0913B
:102FE0008205B09183050196A11DB11D80938005D6
:102FF00090938105A0938205B0938305BF91AF9113
:103000009F918F913F912F910F900FBE0F901F9026
:103010001895789484B5826084BD84B5816084BD40
:1030200085B5826085BD85B5816085BD80916E0066
:10303000816080936E001092810080918100826097
:1030400080938100809181008160809381008091D4
:1030500080008160809380008091B10084608093C3
:10306000B1008091B00081608093B00080917A00BF
:10307000846080937A0080917A00826080937A00E5
:1030800080917A008E7F80937A0080917A008068A8
:1030900080937A001092C10014BE0FB6F894A895E0
:1030A00080916000886180936000109260000FBE84
:1030B000E091C003F091C10382E08083E091BC0302
:1030C000F091BD031082E091BE03F091BF038CE04C
:1030D00080831092C803E091C403F091C50386E099
:1030E0008083E091C203F091C3038081806180837B
:1030F000E091C203F091C303808188608083E091F6
:10310000C203F091C303808180688083E091C20391
:10311000F091C30380818F7D808360EF70E080EB4E
:1031200093E00E94A3128091640081608093640008
:103130008091640084608093640080916400886062
:10314000809364008091640080688093640068EEDE
:1031500073E080E090E00E94791780E090E00E94A8
:10316000F3219091BF01981309C081E090E00E9483
:10317000F3219091C001981709F408C7C0E0D0E08E
:1031800060E0CE010E94FB212196C11524E0D20708
:10319000B9F70E94D4151092770510927805109215
:1031A0007A05109279050E94001261E088E00E9481
:1031B0003D1761E088E00E94F01661E08EE00E9419
:1031C0003D1761E08EE00E94F01665E070E080E05F
:1031D00090E00E94791760E08EE00E943D176AE05F
:1031E00070E080E090E00E94791769E18BE00E9436
:1031F00057148BE00E948E14893189F08091BE01B2
:10320000882331F068ED70E080EB93E00E94A31218
:103210006AEF70E080E090E00E947917CECF68E11D
:1032200084E00E94571460E485E00E94571460E037
:1032300081E00E94571460E082E00E94571460E031
:1032400083E00E94571481E50E948E1490E09093D1
:1032500027058093260580E50E948E14C82F89E5F6
:103260000E948E14CC702C2F30E0220F331F8295D9
:1032700086958770282B23593E4F30932505209340
:10328000240586E08093F6040E941C0F61E08FE025
:103290000E943D1760E081E10E943D178AEE9DE0AB
:1032A0009093030180930201809182028860809351
:1032B000820286B18093850280916C008860809341
:1032C0006C00809168008260809368008EE89DE0C9
:1032D000909301018093000180918302816080932B
:1032E00083028091800281608093800289B1809303
:1032F000860280916D00816080936D0080916800EE
:103300008460809368000E94F515789468EE73E0FD
:1033100080E090E00E9479170E9477038091FB047F
:103320009091FC04A091FD04B091FE048093FF04F1
:1033300090930005A0930105B093020580E490E00E
:103340000E94E01480E490E00E9432151092BE01C9
:103350009EE088E10FB6F894A895809360000FBEB8
:10336000909360006AE0262E75E2372E0E94B31714
:103370004B015C0180918B0281110BC68091A203ED
:103380009091A303A091A403B091A503A50194017A
:10339000281B390B4A0B5B0BDA01C901843F9140B2
:1033A000A105B10508F0F5C53FC0A091E204B0E069
:1033B000AA0FBB1FAA55BB4FE091E304F0E0EE0F4C
:1033C000FF1FEA55FB4F2D913C9180819181281B75
:1033D000390B80916401909165012536310508F41F
:1033E0004AC78E7F909365018093640180919E030C
:1033F00090919F03A091A003B091A1038816990614
:10340000AA06BB0648F480919C0390919D03019607
:1034100090939D0380939C0380929E0390929F03C0
:10342000A092A003B092A10380EB93E00E94DC0C79
:10343000892B09F4F4C40E94B31760939803709326
:10344000990380939A0390939B030E94B317009172
:1034500094031091950320919603309197030C5992
:103460001F4F2F4F3F4F601771078207930710F0D0
:103470001092930380EB93E00E94BA0C2091930387
:103480002F5F20939303233021F128F4213059F04A
:103490002230C9F042C02530A9F110F12630E9F5FB
:1034A0008093930222C0853509F0B6C480938E02C2
:1034B0000E94B317609394037093950380939603CF
:1034C00090939703B1CF8A3A09F0A6C480938F02F4
:1034D000ABCF823008F4A0C48093900299270DC02E
:1034E000823209F099C48093910220918C0230912C
:1034F0008D02A901480F511DCA0190938D0280933E
:103500008C0292CF8093920220918C0230918D0296
:10351000F901E80FF11DCF01F0CF30E040919002AA
:10352000E42FF0E0D9011497BC017727EA17FB07D5
:103530007CF0F901E357FD4F808380918C029091DC
:103540008D02680F791F70938D0260938C026CCF8F
:10355000255031092E173F0729F470939203609389
:10356000910362CF762F6627809191039091920309
:10357000682B792B709392036093910380918C0256
:1035800090918D028095909590938D0280938C02FE
:103590006817790709F040C48091C1008860809362
:1035A000C10080919102823209F036C410919202DA
:1035B000113019F0113F09F091C0433009F02CC4CB
:1035C000C0919302D0E0BE01660F771F4091940234
:1035D0004E3F08F021C43092910202E0040F0093A4
:1035E0009002113059F450E0CB01840F951F833ABB
:1035F000910508F011C46C5F7E4F0CC0113F71F44F
:1036000050E0CB01840F951F8137910508F004C469
:1036100061547E4F84E992E00E947625C10FD11D4E
:10362000A596C00FD11DD0939203C09391036091D2
:103630008E0280EB93E00E94140D60918F0280EB6C
:1036400093E00E94140D6091900280EB93E00E9441
:10365000140D6091910280EB93E00E94140D609133
:10366000920280EB93E00E94140D6091930280EB34
:1036700093E00E94140D10E0C12FD0E080919002E1
:1036800090E00297C817D907A4F4C257DD4F6E81A6
:1036900080EB93E00E94140D2E8180919103909114
:1036A0009203820F911D90939203809391031F5F69
:1036B000E3CF609191037091920360957095709340
:1036C00092036093910380EB93E00E94140D60914C
:1036D000920380EB93E00E94140D9EC3133011F00F
:1036E000133F39F58091930290E0880F991F425063
:1036F000133069F450E09C01240F351F233A310543
:1037000008F08AC364E972E08C5F9E4F0FC0133FDC
:1037100009F082C350E09C01240F351F2137310589
:1037200008F07AC364E972E081549E4F0E947625C6
:1037300073C31A3F09F070C3E09193028E2F90E09B
:10374000FC013197EB30F10508F066C3EC5CFF4FEC
:103750000C946E220E941C0F5FC30E94BB155CC3B9
:103760000E94D41559C381E090919402911101C037
:1037700080E08093BE0150C367EF71E080EB93E07F
:103780000E94271280E00E948E1490E00E942C116B
:103790000E94E71366EE71E080EB93E00E9427122F
:1037A00081E00E948E1490E00E942C110E94E71389
:1037B00065ED71E080EB93E00E94271284E00E94A7
:1037C0008E1490E00E942C110E94E71364EC71E0CB
:1037D00080EB93E00E94271285E00E948E1490E017
:1037E0000E942C110E94E71363EB71E080EB93E0E1
:1037F0000E94271286E00E948E1490E00E942C11F5
:103800000E94E71362EA71E080EB93E00E942712C6
:1038100087E00E948E1490E00E942C110E94E71312
:1038200061E971E080EB93E00E94271288E00E943A
:103830008E1490E00E942C110E94E71360E871E062
:1038400080EB93E00E94271289E00E948E1490E0A2
:103850000E942C110E94E7136FE671E080EB93E069
:103860000E9427128AE00E948E1490E00E942C1180
:103870000E94E7136EE571E080EB93E00E9427124F
:103880008BE00E948E1490E00E942C110E94E7139E
:103890006DE471E080EB93E00E94271282E30E94C6
:1038A000FB02BC0180EB93E00E94A9156CE371E080
:1038B00080EB93E00E9427128AE20E94FB02BC0187
:1038C00080EB93E00E94A9156BE271E080EB93E03E
:1038D0000E942712609124057091250580EB93E0EA
:1038E0000E94A9156AE171E080EB93E00E94271223
:1038F0004091260550912705052E000C660B770B8D
:1039000080EB93E00E94B51380EB93E00E949F123E
:1039100069E071E080EB93E00E94271260918804D7
:103920007091890480EB93E00E94A91568EF70E024
:1039300080EB93E00E94271260918A0470918B04BF
:1039400080EB93E00E94A91564E773E080EB93E0BD
:103950000E94A312A0919C03B0919D0321E430E04A
:103960000E9483226B017C010E94B31728EE33E092
:1039700040E050E00E942D22C20ED31EE41EF51E30
:103980006BE673E080EB93E00E9427122AE0B70118
:10399000A60180EB93E00E94561280EB93E00E9418
:1039A0009F1269E573E080EB93E00E94271240913B
:1039B000E4045091E5046091E6047091E7042AE084
:1039C00080EB93E00E94561266E573E080EB93E093
:1039D0000E9427124091E8045091E90460E070E0F1
:1039E0002AE080EB93E00E94561264E573E080EBDE
:1039F00093E00E94A31262E473E080EB93E00E94E4
:103A000027124091EA045091EB046091EC0470910C
:103A1000ED0480EB93E00E94B5136FE373E080EB5D
:103A200093E00E9427124091EE045091EF04052E7E
:103A3000000C660B770B80EB93E00E94B5136DE3EF
:103A400073E080EB93E00E94A31267E373E080EBE6
:103A500093E00E9427126091FF047091000580910D
:103A60000105909102050E94C5236B017C016091C4
:103A7000FB047091FC048091FD049091FE040E946F
:103A8000C5239B01AC01C701B6010E941B2320E0A6
:103A900030E048EC52E40E94CA2442E00E94191629
:103AA00080EB93E00E949F1269E273E080EB93E069
:103AB0000E9427126091F2047091F304072E000C0B
:103AC000880B990B0E94C52320E030E040E251E4CE
:103AD0000E941B2342E00E94191667E273E080EB0C
:103AE00093E00E9427126091F4047091F504072E70
:103AF000000C880B990B0E94C52320E030E040E2C7
:103B000051E40E941B2342E00E94191680EB93E0CF
:103B10000E949F1264E173E080EB93E00E94271201
:103B200060912D0570912E0580EB93E00E94A91500
:103B300064E073E080EB93E00E9427124091A504BB
:103B400050E060E070E02AE080EB93E00E945612C3
:103B500060E073E080EB93E00E9427124091A404A0
:103B6000E42EF12C50E060E070E080EB93E00E94E6
:103B7000B5136DEF72E080EB93E00E94A31206EAAA
:103B800014E0C0E0D0E0670151E0C51AD108CE15BD
:103B9000DF0534F5F801619171918F0180EB93E0BD
:103BA0000E94F5026AEF72E080EB93E00E94271218
:103BB000F801648D758D80EB93E00E94F50268EF4B
:103BC00072E080EB93E00E942712CC15DD0531F006
:103BD00065EF72E080EB93E00E9427122196D7CF29
:103BE00064EF72E080EB93E00E94A31266EE72E055
:103BF00080EB93E00E942712E091E304F0E0EE0FE7
:103C0000FF1FEA55FB4F6081718180EB93E00E94BA
:103C1000F5026DED72E080EB93E00E942712209197
:103C2000A50430E040E050E06091E4047091E504C8
:103C30008091E6049091E7040E942D22B90180EB67
:103C400093E00E94F50264ED72E080EB93E00E9445
:103C50002712E091E204F0E0EE0FFF1FEA55FB4F60
:103C60006081718180EB93E00E94F50269EC72E063
:103C700080EB93E00E942712A091E204B0E0AA0F2B
:103C8000BB1FAA55BB4FE091E304F0E0EE0FFF1F0E
:103C9000EA55FB4F6D917C9180819181681B790B76
:103CA00080EB93E00E94A9156CEB72E080EB93E04F
:103CB0000E94271260913E0170913F0180EB93E0DA
:103CC0000E94A91566EA72E080EB93E00E94271239
:103CD000609140017091410180EB93E00E94A91531
:103CE00063E972E080EB93E00E9427126091420149
:103CF0007091430180EB93E00E94A91563E872E0A4
:103D000080EB93E00E94271280914F040E940416DA
:103D100064E772E080EB93E00E94271280915004E8
:103D20000E94041667E672E080EB93E00E9427127F
:103D3000809151040E9404166AE572E080EB93E0E2
:103D40000E942712809152040E9404166DE472E0D2
:103D500080EB93E00E942712809153040E94041686
:103D600060E472E080EB93E00E942712809154049B
:103D70000E94041680EB93E00E949F126BE272E0B7
:103D800080EB93E00E942712809156040E94041653
:103D900069E172E080EB93E00E9427128091570462
:103DA0000E94041668E072E080EB93E00E94271204
:103DB000809158040E9404162FC080E490E00E9475
:103DC0005F1580E490E00E940D1526C080E490E02D
:103DD0000E94321580E490E00E94E0141DC060E073
:103DE00001C061E08FE00E94F01616C0FFCF0FB651
:103DF000F894A8958091600088618093600010928B
:103E000060000FBEF8941092B0001092800014BCB5
:103E100014BEE0E0FFE309951092930305CB809177
:103E2000980390919903A0919A03B0919B03881AEB
:103E3000990AAA0ABB0AF8E88F16F3E19F06A104C3
:103E4000B10408F49FC08091BE0181119BC0809194
:103E5000C100877F8093C100F89483B7817F86601B
:103E600083BF1092B00087E08093B1001092B2003F
:103E700081E0809370008091C1008F7E8093C100AB
:103E800089B18093860280916D00816080936D007E
:103E900080916800846080936800A89510928A02DF
:103EA00083B7816083BF7894889580918A0281115D
:103EB00006C080918802909189024097A8F383B749
:103EC0008E7F83BF1092B10010927000C091880263
:103ED000D09189026091B200C0907B05D0907C05A2
:103EE000E0907D05F0907E0570E080E090E00E941B
:103EF000C5232CE53FE842E052E40E94CA2420E0BA
:103F000030E04FE753E40E941B234B015C01BE01EC
:103F100080E090E00E94C3232CE53FE842E052E4B9
:103F20000E94CA249B01AC01C501B4010E94AA22CF
:103F30000E949423C60ED71EE81EF91EC0927B0570
:103F4000D0927C05E0927D05F0927E051092890268
:103F50001092880280918702882351F00E94B31743
:103F6000609398037093990380939A0390939B03B3
:103F7000109287020E94F5158091C10080618093A4
:103F8000C1007894A8950E94830DF0C90E94BB15CA
:103F900002C980918B02811110928B020E947703DB
:103FA000C82F8092A2039092A303A092A403B09280
:103FB000A5034090EA045090EB046090EC047090EC
:103FC000ED0480910B0290910C02AC01092E000CC3
:103FD000660B770B209164013091650144155505FE
:103FE0006605770514F420640EC097FD019695953B
:103FF0008795092E000CAA0BBB0B481659066A06BA
:104000007B062CF42F7B3093650120936401809113
:10401000640190916501C2FF07C0926090936501B1
:1040200080936401CB7F05C09D7F90936501809351
:1040300064016091E4047091E5048091E60490913C
:10404000E7042AE030E040E050E00E942D226901C0
:104050007A0180913E0190913F018217930720F4ED
:1040600030933F0120933E01C301B2012AE030E0CA
:1040700040E050E00E944F22C90100271127021B97
:10408000130B1816190664F46091420170914301F4
:104090006217730790F430934301209342010DC0DF
:1040A000892B59F08091400190914101801791072F
:1040B00020F410934101009340016091FF0470913E
:1040C000000580910105909102050E94C5232B01F6
:1040D0003C016091FB047091FC048091FD0490917F
:1040E000FE040E94C5239B01AC01C301B2010E94E2
:1040F0001B2320E030E048EC52E40E94CA242B014C
:104100003C01609134017091350180E090E00E94A3
:10411000C323A30192010E94CA2420E030E048ECAE
:1041200052E40E941B230E949423709367016093C2
:104130006601C301B2010E949423709369016093E8
:10414000680110936B0100936A01D0926D01C092D7
:104150006C016091F2047091F304072E000C880B3F
:10416000990B0E94C52320E030E040E251E40E9418
:104170001B2320E030E040EA51E40E94AA220E9482
:10418000942360936E016091F4047091F504072EFE
:10419000000C880B990B0E94C52320E030E040E220
:1041A00051E40E941B2320E030E040EA51E40E94E9
:1041B000AA220E94942360936F010E94961320917B
:1041C000E5013091E60123503109229EA001239E92
:1041D000500D112420916401309165014817590751
:1041E00014F4346001C03B7F309365012093640177
:1041F00020914D04222391F080913A0190913B014E
:10420000820F911D90933B0180933A0110924D04CF
:104210009093DA018093D9010E94D41520914E0425
:10422000222381F080913C0190913D01820F911DEC
:1042300090933D0180933C019093DC018093DB01DE
:1042400010924E043091A504A5E9B4E044E851E091
:1042500020E0231709F4A9C88D9190E0880F991FD9
:104260008A559B4FFC0180819181FA018193919342
:10427000AF012F5FEECFC111B4C88160B3C8CF9337
:10428000DF931092B3031092B20388EE93E0A0E0A4
:10429000B0E08093B4039093B503A093B603B093BA
:1042A000B7032BE432E03093B1032093B00325EC45
:1042B00030E03093BD032093BC0324EC30E0309316
:1042C000BF032093BE0320EC30E03093C103209362
:1042D000C00321EC30E03093C3032093C20322ECEF
:1042E00030E03093C5032093C40326EC30E03093D4
:1042F000C7032093C6031092C9031092CA031092F9
:10430000CB031092CC032EEFEDE4F4E0EF01199211
:104310002A95E9F720E13EE03093F8042093F70472
:1043200028E630E13093FA042093F90480938C045A
:1043300090938D04A0938E04B0938F048BE69DE040
:10434000909391048093900488E097E090933205D5
:104350008093310588E49DE09093220580932105A8
:1043600084E1809323058EE190E0A0E0B0E08093AB
:10437000110590931205A0931305B093140581E0E5
:104380008093940483E080935B048FE08093A40483
:1043900087E08093F604E6EAF4E084EC94E011927E
:1043A00011928E179F07D9F781E080935C0488E013
:1043B00080935A0410924E0510924D0588EE93E0BA
:1043C000A0E0B0E080934F0590935005A093510575
:1043D000B09352058DE592E090934C0580934B0588
:1043E000DF91CF910895F999FECF92BD81BDF89AE2
:1043F000992780B50895262FF999FECF1FBA92BD4F
:1044000081BD20BD0FB6F894FA9AF99A0FBE0196B5
:104410000895DB018F939F930E948A22BF91AF91F1
:10442000A29F800D911DA39F900DB29F900D11240E
:10443000089597FB072E16F4009407D077FD09D056
:104440000E94952207FC05D03EF4909581959F4FE0
:104450000895709561957F4F0895A1E21A2EAA1BC9
:10446000BB1BFD010DC0AA1FBB1FEE1FFF1FA21724
:10447000B307E407F50720F0A21BB30BE40BF50B21
:10448000661F771F881F991F1A9469F760957095AA
:10449000809590959B01AC01BD01CF010895052E3B
:1044A00097FB1EF400940E94662257FD07D00E94DD
:1044B0002D2207FC03D04EF40C94662250954095B3
:1044C000309521953F4F4F4F5F4F089590958095C0
:1044D000709561957F4F8F4F9F4F0895EE0FFF1F8F
:1044E0000590F491E02D0994A29FB001B39FC00103
:1044F000A39F700D811D1124911DB29F700D811D10
:104500001124911D08950E947422B7FF0895821B03
:10451000930B08950E947422A59F900DB49F900D57
:10452000A49F800D911D11240895AA1BBB1B51E16E
:1045300007C0AA1FBB1FA617B70710F0A61BB70B13
:10454000881F991F5A95A9F780959095BC01CD01B8
:1045500008955058BB27AA270E94C1220C943B24DF
:104560000E942D2438F00E94342420F039F49F3F1B
:1045700019F426F40C942A240EF4E095E7FB0C942D
:104580002424E92F0E944C2458F3BA1762077307BA
:104590008407950720F079F4A6F50C946E240EF4A8
:1045A000E0950B2EBA2FA02D0B01B90190010C0143
:1045B000CA01A0011124FF27591B99F0593F50F45B
:1045C000503E68F11A16F040A22F232F342F4427B3
:1045D000585FF3CF469537952795A795F0405395AB
:1045E000C9F77EF41F16BA0B620B730B840BBAF07B
:1045F0009150A1F0FF0FBB1F661F771F881FC2F7E6
:104600000EC0BA0F621F731F841F48F487957795F9
:104610006795B795F7959E3F08F0B0CF9395880FB3
:1046200008F09927EE0F9795879508950E9400242A
:1046300008F481E008950E942F230C943B240E94EB
:10464000342458F00E942D2440F029F45F3F29F0D3
:104650000C94242451110C946F240C942A240E944D
:104660004C2468F39923B1F3552391F3951B550B13
:10467000BB27AA2762177307840738F09F5F5F4F35
:10468000220F331F441FAA1FA9F335D00E2E3AF074
:10469000E0E832D091505040E695001CCAF72BD08C
:1046A000FE2F29D0660F771F881FBB1F26173707DD
:1046B0004807AB07B0E809F0BB0B802DBF01FF270F
:1046C00093585F4F3AF09E3F510578F00C942424A4
:1046D0000C946F245F3FE4F3983ED4F3869577956E
:1046E0006795B795F7959F5FC9F7880F911D9695C8
:1046F000879597F90895E1E0660F771F881FBB1F24
:10470000621773078407BA0720F0621B730B840BD0
:10471000BA0BEE1F88F7E09508950E9494236894E1
:10472000B1110C946F2408950E94542488F09F576F
:1047300098F0B92F9927B751B0F0E1F0660F771FC5
:10474000881F991F1AF0BA95C9F714C0B13091F0BB
:104750000E946E24B1E008950C946E24672F782F88
:104760008827B85F39F0B93FCCF386957795679580
:10477000B395D9F73EF490958095709561957F4FEC
:104780008F4F9F4F0895E89409C097FB3EF4909592
:104790008095709561957F4F8F4F9F4F9923A9F01A
:1047A000F92F96E9BB279395F695879577956795A9
:1047B000B795F111F8CFFAF4BB0F11F460FF1BC0ED
:1047C0006F5F7F4F8F4F9F4F16C0882311F096E980
:1047D00011C0772321F09EE8872F762F05C066232E
:1047E00071F096E8862F70E060E02AF09A95660FE7
:1047F000771F881FDAF7880F9695879597F90895A0
:10480000990F0008550FAA0BE0E8FEEF16161706E1
:10481000E807F907C0F012161306E407F50798F049
:10482000621B730B840B950B39F40A2661F0232B62
:10483000242B252B21F408950A2609F4A140A695DE
:104840008FEF811D811D089597F99F6780E870E0C3
:1048500060E008959FEF80EC089500240A941616F6
:10486000170618060906089500240A94121613065E
:10487000140605060895092E0394000C11F48823EC
:1048800052F0BB0F40F4BF2B11F460FF04C06F5F08
:104890007F4F8F4F9F4F089557FD9058440F551FDE
:1048A00059F05F3F71F04795880F97FB991F61F0B2
:1048B0009F3F79F087950895121613061406551F29
:1048C000F2CF4695F1DF08C0161617061806991F95
:1048D000F1CF86957105610508940895E894BB278A
:1048E00066277727CB0197F908950E94002408F4E2
:1048F0008FEF089516F00C943C250C942A246894AC
:104900000C9424240E945424A8F39923C1F3AEF3F9
:10491000DF93CF931F930F93FF92C92FDD27882337
:104920002AF02197660F771F881FDAF720E030E022
:1049300040E85FEB9FE3883920F0803E38F0219615
:104940008F770E94AA22EEE7F0E004C00E94AA221C
:10495000EBEAF0E00E944A258B01BE01EC01FB2E40
:104960006F5771097595771F880B990B0E94C523A6
:1049700028E132E741E35FE30E94DD24AF2D980197
:10498000AE01FF900F911F91CF91DF910E94C12244
:104990000C943B240E94DD240C943B240E942D2483
:1049A00038F00E94342420F0952311F00C94242434
:1049B0000C942A2411240C946F240E944C2470F32C
:1049C000959FC1F3950F50E0551F629FF001729FB4
:1049D000BB27F00DB11D639FAA27F00DB11DAA1FC3
:1049E000649F6627B00DA11D661F829F2227B00D10
:1049F000A11D621F739FB00DA11D621F839FA00D9B
:104A0000611D221F749F3327A00D611D231F849FEA
:104A1000600D211D822F762F6A2F11249F57504041
:104A20009AF0F1F088234AF0EE0FFF1FBB1F661FBC
:104A3000771F881F91505040A9F79E3F510580F085
:104A40000C9424240C946F245F3FE4F3983ED4F339
:104A5000869577956795B795F795E7959F5FC1F729
:104A6000FE2B880F911D9695879597F908950E94C2
:104A70000024880B990B08959F3F31F0915020F44A
:104A8000879577956795B795880F911D969587952A
:104A900097F90895DF93CF931F930F93FF92EF92AF
:104AA000DF927B018C01689406C0DA2EEF010E9430
:104AB000DD24FE01E894A59125913591459155910C
:104AC000A6F3EF010E94C122FE019701A801DA942A
:104AD00069F7DF90EF90FF900F911F91CF91DF91D9
:104AE000089581E090E0F8940C949925FB01DC0195
:104AF00002C001900D9241505040D8F70895FB013B
:104B0000DC010D900020E9F7119701900D92002033
:104B1000E1F70895FB01DC014150504048F001905D
:104B20000D920020C9F701C01D9241505040E0F79E
:064B30000895F894FFCF88
:104B36008D0D8D0D5A005A00000000000000000087
:104B4600000000000000000000000000000000005F
:104B5600000000000000000000000000000000004F
:104B66000000000900000000000000000000000036
:104B7600000000000000000000000000000000002F
:104B8600000000000000000000000000000000001F
:104B9600000000000100000000000000000000000E
:104BA600000000000000000000006400000000009B
:104BB60000000000000000000000000000000000EF
:104BC60000000000000000000000000000000000DF
:104BD6000000000000008D0D8D0D8D0D8D0D8D0DCD
:104BE6008D0D8D0D8D0D8D0D8D0D8D0D8D0D01B0D8
:104BF6000B01004C616E74686920313273357000A8
:104C060000E8350000100E4F10000000006A29E889
:104C1600036B0DECFF3C0000002D0080380100C83E
:104C26000088130000B80BB88800000005F00A02DF
:104C360000681002000807100E0A00F401010000C7
:104C4600000000000000000000000000000000005E
:104C56000000000000000000000000000000001638
:104C6600212C38434E5964080B0E111316191C1FBC
:104C76002124272A2C2F3200000000140D810CABB2
:104C86000C610DDC0CBA0CCE0C00000000B611BD98
:104C96000DE50D940DB40DA20D950D310030000DEE
:0E4CA6000A006E616E00696E66006F76660031
:00000001FF
